{
    "_format": "hh-sol-artifact-1",
    "contractName": "CertificateNFTV3",
    "sourceName": "contracts/nft_cert.sol",
    "abi": [
        {
            "inputs": [],
            "name": "AccessControlBadConfirmation",
            "type": "error"
        },
        {
            "inputs": [
                {
                    "internalType": "address",
                    "name": "account",
                    "type": "address"
                },
                {
                    "internalType": "bytes32",
                    "name": "neededRole",
                    "type": "bytes32"
                }
            ],
            "name": "AccessControlUnauthorizedAccount",
            "type": "error"
        },
        {
            "inputs": [
                {
                    "internalType": "address",
                    "name": "target",
                    "type": "address"
                }
            ],
            "name": "AddressEmptyCode",
            "type": "error"
        },
        {
            "inputs": [
                {
                    "internalType": "address",
                    "name": "implementation",
                    "type": "address"
                }
            ],
            "name": "ERC1967InvalidImplementation",
            "type": "error"
        },
        {
            "inputs": [],
            "name": "ERC1967NonPayable",
            "type": "error"
        },
        {
            "inputs": [
                {
                    "internalType": "address",
                    "name": "sender",
                    "type": "address"
                },
                {
                    "internalType": "uint256",
                    "name": "tokenId",
                    "type": "uint256"
                },
                {
                    "internalType": "address",
                    "name": "owner",
                    "type": "address"
                }
            ],
            "name": "ERC721IncorrectOwner",
            "type": "error"
        },
        {
            "inputs": [
                {
                    "internalType": "address",
                    "name": "operator",
                    "type": "address"
                },
                {
                    "internalType": "uint256",
                    "name": "tokenId",
                    "type": "uint256"
                }
            ],
            "name": "ERC721InsufficientApproval",
            "type": "error"
        },
        {
            "inputs": [
                {
                    "internalType": "address",
                    "name": "approver",
                    "type": "address"
                }
            ],
            "name": "ERC721InvalidApprover",
            "type": "error"
        },
        {
            "inputs": [
                {
                    "internalType": "address",
                    "name": "operator",
                    "type": "address"
                }
            ],
            "name": "ERC721InvalidOperator",
            "type": "error"
        },
        {
            "inputs": [
                {
                    "internalType": "address",
                    "name": "owner",
                    "type": "address"
                }
            ],
            "name": "ERC721InvalidOwner",
            "type": "error"
        },
        {
            "inputs": [
                {
                    "internalType": "address",
                    "name": "receiver",
                    "type": "address"
                }
            ],
            "name": "ERC721InvalidReceiver",
            "type": "error"
        },
        {
            "inputs": [
                {
                    "internalType": "address",
                    "name": "sender",
                    "type": "address"
                }
            ],
            "name": "ERC721InvalidSender",
            "type": "error"
        },
        {
            "inputs": [
                {
                    "internalType": "uint256",
                    "name": "tokenId",
                    "type": "uint256"
                }
            ],
            "name": "ERC721NonexistentToken",
            "type": "error"
        },
        {
            "inputs": [],
            "name": "FailedInnerCall",
            "type": "error"
        },
        {
            "inputs": [],
            "name": "InvalidInitialization",
            "type": "error"
        },
        {
            "inputs": [],
            "name": "NotInitializing",
            "type": "error"
        },
        {
            "inputs": [],
            "name": "UUPSUnauthorizedCallContext",
            "type": "error"
        },
        {
            "inputs": [
                {
                    "internalType": "bytes32",
                    "name": "slot",
                    "type": "bytes32"
                }
            ],
            "name": "UUPSUnsupportedProxiableUUID",
            "type": "error"
        },
        {
            "anonymous": false,
            "inputs": [
                {
                    "indexed": true,
                    "internalType": "address",
                    "name": "owner",
                    "type": "address"
                },
                {
                    "indexed": true,
                    "internalType": "address",
                    "name": "approved",
                    "type": "address"
                },
                {
                    "indexed": true,
                    "internalType": "uint256",
                    "name": "tokenId",
                    "type": "uint256"
                }
            ],
            "name": "Approval",
            "type": "event"
        },
        {
            "anonymous": false,
            "inputs": [
                {
                    "indexed": true,
                    "internalType": "address",
                    "name": "owner",
                    "type": "address"
                },
                {
                    "indexed": true,
                    "internalType": "address",
                    "name": "operator",
                    "type": "address"
                },
                {
                    "indexed": false,
                    "internalType": "bool",
                    "name": "approved",
                    "type": "bool"
                }
            ],
            "name": "ApprovalForAll",
            "type": "event"
        },
        {
            "anonymous": false,
            "inputs": [
                {
                    "indexed": false,
                    "internalType": "uint256",
                    "name": "_fromTokenId",
                    "type": "uint256"
                },
                {
                    "indexed": false,
                    "internalType": "uint256",
                    "name": "_toTokenId",
                    "type": "uint256"
                }
            ],
            "name": "BatchMetadataUpdate",
            "type": "event"
        },
        {
            "anonymous": false,
            "inputs": [
                {
                    "indexed": true,
                    "internalType": "address",
                    "name": "to",
                    "type": "address"
                },
                {
                    "indexed": true,
                    "internalType": "uint256",
                    "name": "tokenId",
                    "type": "uint256"
                },
                {
                    "indexed": false,
                    "internalType": "string",
                    "name": "certificateId",
                    "type": "string"
                },
                {
                    "indexed": false,
                    "internalType": "string",
                    "name": "fullName",
                    "type": "string"
                },
                {
                    "indexed": false,
                    "internalType": "string",
                    "name": "organizationName",
                    "type": "string"
                },
                {
                    "indexed": false,
                    "internalType": "string",
                    "name": "headName",
                    "type": "string"
                },
                {
                    "indexed": false,
                    "internalType": "string",
                    "name": "headPosition",
                    "type": "string"
                },
                {
                    "indexed": false,
                    "internalType": "string",
                    "name": "headSignature",
                    "type": "string"
                },
                {
                    "indexed": false,
                    "internalType": "string",
                    "name": "description",
                    "type": "string"
                },
                {
                    "indexed": false,
                    "internalType": "string",
                    "name": "position",
                    "type": "string"
                },
                {
                    "indexed": false,
                    "internalType": "string",
                    "name": "date",
                    "type": "string"
                },
                {
                    "indexed": false,
                    "internalType": "string",
                    "name": "blockchainType",
                    "type": "string"
                },
                {
                    "indexed": false,
                    "internalType": "string",
                    "name": "templateURL",
                    "type": "string"
                }
            ],
            "name": "CertificateMinted",
            "type": "event"
        },
        {
            "anonymous": false,
            "inputs": [
                {
                    "indexed": false,
                    "internalType": "uint64",
                    "name": "version",
                    "type": "uint64"
                }
            ],
            "name": "Initialized",
            "type": "event"
        },
        {
            "anonymous": false,
            "inputs": [
                {
                    "indexed": false,
                    "internalType": "uint256",
                    "name": "_tokenId",
                    "type": "uint256"
                }
            ],
            "name": "MetadataUpdate",
            "type": "event"
        },
        {
            "anonymous": false,
            "inputs": [
                {
                    "indexed": true,
                    "internalType": "bytes32",
                    "name": "role",
                    "type": "bytes32"
                },
                {
                    "indexed": true,
                    "internalType": "bytes32",
                    "name": "previousAdminRole",
                    "type": "bytes32"
                },
                {
                    "indexed": true,
                    "internalType": "bytes32",
                    "name": "newAdminRole",
                    "type": "bytes32"
                }
            ],
            "name": "RoleAdminChanged",
            "type": "event"
        },
        {
            "anonymous": false,
            "inputs": [
                {
                    "indexed": true,
                    "internalType": "bytes32",
                    "name": "role",
                    "type": "bytes32"
                },
                {
                    "indexed": true,
                    "internalType": "address",
                    "name": "account",
                    "type": "address"
                },
                {
                    "indexed": true,
                    "internalType": "address",
                    "name": "sender",
                    "type": "address"
                }
            ],
            "name": "RoleGranted",
            "type": "event"
        },
        {
            "anonymous": false,
            "inputs": [
                {
                    "indexed": true,
                    "internalType": "bytes32",
                    "name": "role",
                    "type": "bytes32"
                },
                {
                    "indexed": true,
                    "internalType": "address",
                    "name": "account",
                    "type": "address"
                },
                {
                    "indexed": true,
                    "internalType": "address",
                    "name": "sender",
                    "type": "address"
                }
            ],
            "name": "RoleRevoked",
            "type": "event"
        },
        {
            "anonymous": false,
            "inputs": [
                {
                    "indexed": true,
                    "internalType": "address",
                    "name": "from",
                    "type": "address"
                },
                {
                    "indexed": true,
                    "internalType": "address",
                    "name": "to",
                    "type": "address"
                },
                {
                    "indexed": true,
                    "internalType": "uint256",
                    "name": "tokenId",
                    "type": "uint256"
                }
            ],
            "name": "Transfer",
            "type": "event"
        },
        {
            "anonymous": false,
            "inputs": [
                {
                    "indexed": true,
                    "internalType": "address",
                    "name": "implementation",
                    "type": "address"
                }
            ],
            "name": "Upgraded",
            "type": "event"
        },
        {
            "inputs": [],
            "name": "DEFAULT_ADMIN_ROLE",
            "outputs": [
                {
                    "internalType": "bytes32",
                    "name": "",
                    "type": "bytes32"
                }
            ],
            "stateMutability": "view",
            "type": "function"
        },
        {
            "inputs": [],
            "name": "UPGRADE_INTERFACE_VERSION",
            "outputs": [
                {
                    "internalType": "string",
                    "name": "",
                    "type": "string"
                }
            ],
            "stateMutability": "view",
            "type": "function"
        },
        {
            "inputs": [
                {
                    "internalType": "address",
                    "name": "to",
                    "type": "address"
                },
                {
                    "internalType": "uint256",
                    "name": "tokenId",
                    "type": "uint256"
                }
            ],
            "name": "approve",
            "outputs": [],
            "stateMutability": "nonpayable",
            "type": "function"
        },
        {
            "inputs": [
                {
                    "internalType": "address",
                    "name": "owner",
                    "type": "address"
                }
            ],
            "name": "balanceOf",
            "outputs": [
                {
                    "internalType": "uint256",
                    "name": "",
                    "type": "uint256"
                }
            ],
            "stateMutability": "view",
            "type": "function"
        },
        {
            "inputs": [
                {
                    "internalType": "uint256",
                    "name": "tokenId",
                    "type": "uint256"
                }
            ],
            "name": "getApproved",
            "outputs": [
                {
                    "internalType": "address",
                    "name": "",
                    "type": "address"
                }
            ],
            "stateMutability": "view",
            "type": "function"
        },
        {
            "inputs": [
                {
                    "internalType": "uint256",
                    "name": "tokenId",
                    "type": "uint256"
                }
            ],
            "name": "getCertData",
            "outputs": [
                {
                    "components": [
                        {
                            "internalType": "string",
                            "name": "organizationName",
                            "type": "string"
                        },
                        {
                            "internalType": "string",
                            "name": "headName",
                            "type": "string"
                        },
                        {
                            "internalType": "string",
                            "name": "headPosition",
                            "type": "string"
                        },
                        {
                            "internalType": "string",
                            "name": "headSignature",
                            "type": "string"
                        },
                        {
                            "internalType": "string",
                            "name": "description",
                            "type": "string"
                        },
                        {
                            "internalType": "string",
                            "name": "position",
                            "type": "string"
                        },
                        {
                            "internalType": "string",
                            "name": "date",
                            "type": "string"
                        },
                        {
                            "internalType": "string",
                            "name": "blockchainType",
                            "type": "string"
                        },
                        {
                            "internalType": "string",
                            "name": "templateURL",
                            "type": "string"
                        }
                    ],
                    "internalType": "struct CertificateNFTV3.CertificateData",
                    "name": "",
                    "type": "tuple"
                }
            ],
            "stateMutability": "view",
            "type": "function"
        },
        {
            "inputs": [
                {
                    "internalType": "uint256",
                    "name": "tokenId",
                    "type": "uint256"
                }
            ],
            "name": "getCertId",
            "outputs": [
                {
                    "internalType": "string",
                    "name": "",
                    "type": "string"
                }
            ],
            "stateMutability": "view",
            "type": "function"
        },
        {
            "inputs": [
                {
                    "internalType": "bytes32",
                    "name": "role",
                    "type": "bytes32"
                }
            ],
            "name": "getRoleAdmin",
            "outputs": [
                {
                    "internalType": "bytes32",
                    "name": "",
                    "type": "bytes32"
                }
            ],
            "stateMutability": "view",
            "type": "function"
        },
        {
            "inputs": [
                {
                    "internalType": "address",
                    "name": "account",
                    "type": "address"
                }
            ],
            "name": "grantAdminRole",
            "outputs": [],
            "stateMutability": "nonpayable",
            "type": "function"
        },
        {
            "inputs": [
                {
                    "internalType": "bytes32",
                    "name": "role",
                    "type": "bytes32"
                },
                {
                    "internalType": "address",
                    "name": "account",
                    "type": "address"
                }
            ],
            "name": "grantRole",
            "outputs": [],
            "stateMutability": "nonpayable",
            "type": "function"
        },
        {
            "inputs": [
                {
                    "internalType": "bytes32",
                    "name": "role",
                    "type": "bytes32"
                },
                {
                    "internalType": "address",
                    "name": "account",
                    "type": "address"
                }
            ],
            "name": "hasRole",
            "outputs": [
                {
                    "internalType": "bool",
                    "name": "",
                    "type": "bool"
                }
            ],
            "stateMutability": "view",
            "type": "function"
        },
        {
            "inputs": [],
            "name": "initialize",
            "outputs": [],
            "stateMutability": "nonpayable",
            "type": "function"
        },
        {
            "inputs": [
                {
                    "internalType": "address",
                    "name": "owner",
                    "type": "address"
                },
                {
                    "internalType": "address",
                    "name": "operator",
                    "type": "address"
                }
            ],
            "name": "isApprovedForAll",
            "outputs": [
                {
                    "internalType": "bool",
                    "name": "",
                    "type": "bool"
                }
            ],
            "stateMutability": "view",
            "type": "function"
        },
        {
            "inputs": [
                {
                    "components": [
                        {
                            "internalType": "address",
                            "name": "owner",
                            "type": "address"
                        },
                        {
                            "internalType": "string",
                            "name": "fullName",
                            "type": "string"
                        },
                        {
                            "internalType": "string",
                            "name": "certificateId",
                            "type": "string"
                        },
                        {
                            "internalType": "string",
                            "name": "tokenURI",
                            "type": "string"
                        },
                        {
                            "components": [
                                {
                                    "internalType": "string",
                                    "name": "organizationName",
                                    "type": "string"
                                },
                                {
                                    "internalType": "string",
                                    "name": "headName",
                                    "type": "string"
                                },
                                {
                                    "internalType": "string",
                                    "name": "headPosition",
                                    "type": "string"
                                },
                                {
                                    "internalType": "string",
                                    "name": "headSignature",
                                    "type": "string"
                                },
                                {
                                    "internalType": "string",
                                    "name": "description",
                                    "type": "string"
                                },
                                {
                                    "internalType": "string",
                                    "name": "position",
                                    "type": "string"
                                },
                                {
                                    "internalType": "string",
                                    "name": "date",
                                    "type": "string"
                                },
                                {
                                    "internalType": "string",
                                    "name": "blockchainType",
                                    "type": "string"
                                },
                                {
                                    "internalType": "string",
                                    "name": "templateURL",
                                    "type": "string"
                                }
                            ],
                            "internalType": "struct CertificateNFTV3.CertificateData",
                            "name": "certData",
                            "type": "tuple"
                        }
                    ],
                    "internalType": "struct CertificateNFTV3.MintData[]",
                    "name": "mintDataArray",
                    "type": "tuple[]"
                }
            ],
            "name": "mintBulk",
            "outputs": [
                {
                    "internalType": "uint256[]",
                    "name": "",
                    "type": "uint256[]"
                }
            ],
            "stateMutability": "nonpayable",
            "type": "function"
        },
        {
            "inputs": [],
            "name": "name",
            "outputs": [
                {
                    "internalType": "string",
                    "name": "",
                    "type": "string"
                }
            ],
            "stateMutability": "view",
            "type": "function"
        },
        {
            "inputs": [
                {
                    "internalType": "uint256",
                    "name": "tokenId",
                    "type": "uint256"
                }
            ],
            "name": "ownerOf",
            "outputs": [
                {
                    "internalType": "address",
                    "name": "",
                    "type": "address"
                }
            ],
            "stateMutability": "view",
            "type": "function"
        },
        {
            "inputs": [],
            "name": "proxiableUUID",
            "outputs": [
                {
                    "internalType": "bytes32",
                    "name": "",
                    "type": "bytes32"
                }
            ],
            "stateMutability": "view",
            "type": "function"
        },
        {
            "inputs": [
                {
                    "internalType": "bytes32",
                    "name": "role",
                    "type": "bytes32"
                },
                {
                    "internalType": "address",
                    "name": "callerConfirmation",
                    "type": "address"
                }
            ],
            "name": "renounceRole",
            "outputs": [],
            "stateMutability": "nonpayable",
            "type": "function"
        },
        {
            "inputs": [
                {
                    "internalType": "address",
                    "name": "account",
                    "type": "address"
                }
            ],
            "name": "revokeAdminRole",
            "outputs": [],
            "stateMutability": "nonpayable",
            "type": "function"
        },
        {
            "inputs": [
                {
                    "internalType": "bytes32",
                    "name": "role",
                    "type": "bytes32"
                },
                {
                    "internalType": "address",
                    "name": "account",
                    "type": "address"
                }
            ],
            "name": "revokeRole",
            "outputs": [],
            "stateMutability": "nonpayable",
            "type": "function"
        },
        {
            "inputs": [
                {
                    "internalType": "address",
                    "name": "from",
                    "type": "address"
                },
                {
                    "internalType": "address",
                    "name": "to",
                    "type": "address"
                },
                {
                    "internalType": "uint256",
                    "name": "tokenId",
                    "type": "uint256"
                }
            ],
            "name": "safeTransferFrom",
            "outputs": [],
            "stateMutability": "nonpayable",
            "type": "function"
        },
        {
            "inputs": [
                {
                    "internalType": "address",
                    "name": "from",
                    "type": "address"
                },
                {
                    "internalType": "address",
                    "name": "to",
                    "type": "address"
                },
                {
                    "internalType": "uint256",
                    "name": "tokenId",
                    "type": "uint256"
                },
                {
                    "internalType": "bytes",
                    "name": "data",
                    "type": "bytes"
                }
            ],
            "name": "safeTransferFrom",
            "outputs": [],
            "stateMutability": "nonpayable",
            "type": "function"
        },
        {
            "inputs": [
                {
                    "internalType": "address",
                    "name": "operator",
                    "type": "address"
                },
                {
                    "internalType": "bool",
                    "name": "approved",
                    "type": "bool"
                }
            ],
            "name": "setApprovalForAll",
            "outputs": [],
            "stateMutability": "nonpayable",
            "type": "function"
        },
        {
            "inputs": [
                {
                    "internalType": "string",
                    "name": "newBaseURI",
                    "type": "string"
                }
            ],
            "name": "setBaseURI",
            "outputs": [],
            "stateMutability": "nonpayable",
            "type": "function"
        },
        {
            "inputs": [
                {
                    "internalType": "uint256",
                    "name": "tokenId",
                    "type": "uint256"
                },
                {
                    "internalType": "string",
                    "name": "tokenURI",
                    "type": "string"
                }
            ],
            "name": "setTokenURI",
            "outputs": [],
            "stateMutability": "nonpayable",
            "type": "function"
        },
        {
            "inputs": [
                {
                    "internalType": "bytes4",
                    "name": "interfaceId",
                    "type": "bytes4"
                }
            ],
            "name": "supportsInterface",
            "outputs": [
                {
                    "internalType": "bool",
                    "name": "",
                    "type": "bool"
                }
            ],
            "stateMutability": "view",
            "type": "function"
        },
        {
            "inputs": [],
            "name": "symbol",
            "outputs": [
                {
                    "internalType": "string",
                    "name": "",
                    "type": "string"
                }
            ],
            "stateMutability": "view",
            "type": "function"
        },
        {
            "inputs": [
                {
                    "internalType": "uint256",
                    "name": "tokenId",
                    "type": "uint256"
                }
            ],
            "name": "tokenURI",
            "outputs": [
                {
                    "internalType": "string",
                    "name": "",
                    "type": "string"
                }
            ],
            "stateMutability": "view",
            "type": "function"
        },
        {
            "inputs": [
                {
                    "internalType": "address",
                    "name": "from",
                    "type": "address"
                },
                {
                    "internalType": "address",
                    "name": "to",
                    "type": "address"
                },
                {
                    "internalType": "uint256",
                    "name": "tokenId",
                    "type": "uint256"
                }
            ],
            "name": "transferFrom",
            "outputs": [],
            "stateMutability": "nonpayable",
            "type": "function"
        },
        {
            "inputs": [
                {
                    "internalType": "address",
                    "name": "newImplementation",
                    "type": "address"
                },
                {
                    "internalType": "bytes",
                    "name": "data",
                    "type": "bytes"
                }
            ],
            "name": "upgradeToAndCall",
            "outputs": [],
            "stateMutability": "payable",
            "type": "function"
        }
    ],
    "bytecode": "0x60a06040523073ffffffffffffffffffffffffffffffffffffffff1660809073ffffffffffffffffffffffffffffffffffffffff16815250348015604257600080fd5b50608051614bdd61006c60003960008181612075015281816120ca015261228b0152614bdd6000f3fe6080604052600436106101cd5760003560e01c806370a08231116100f7578063a217fddf11610095578063c634b78e11610064578063c634b78e1461069b578063c87b56dd146106c4578063d547741f14610701578063e985e9c51461072a576101cd565b8063a217fddf146105f3578063a22cb4651461061e578063ad3cb1cc14610647578063b88d4fde14610672576101cd565b806383736b78116100d157806383736b781461052557806391d148541461056257806395d89b411461059f5780639a19c7b0146105ca576101cd565b806370a082311461049457806373ab04e7146104d15780638129fc1c1461050e576101cd565b8063248a9ca31161016f5780634f1ef2861161013e5780634f1ef286146103e757806352d1902d1461040357806355f804b31461042e5780636352211e14610457576101cd565b8063248a9ca31461032f5780632f2ff15d1461036c57806336568abe1461039557806342842e0e146103be576101cd565b8063095ea7b3116101ab578063095ea7b314610277578063162094c4146102a05780631d79f516146102c957806323b872dd14610306576101cd565b806301ffc9a7146101d257806306fdde031461020f578063081812fc1461023a575b600080fd5b3480156101de57600080fd5b506101f960048036038101906101f491906136d6565b610767565b604051610206919061371e565b60405180910390f35b34801561021b57600080fd5b50610224610779565b60405161023191906137c9565b60405180910390f35b34801561024657600080fd5b50610261600480360381019061025c9190613821565b61081a565b60405161026e919061388f565b60405180910390f35b34801561028357600080fd5b5061029e600480360381019061029991906138d6565b610836565b005b3480156102ac57600080fd5b506102c760048036038101906102c29190613a4b565b61084c565b005b3480156102d557600080fd5b506102f060048036038101906102eb9190613821565b610868565b6040516102fd9190613bee565b60405180910390f35b34801561031257600080fd5b5061032d60048036038101906103289190613c10565b610db8565b005b34801561033b57600080fd5b5061035660048036038101906103519190613c99565b610eba565b6040516103639190613cd5565b60405180910390f35b34801561037857600080fd5b50610393600480360381019061038e9190613cf0565b610ee8565b005b3480156103a157600080fd5b506103bc60048036038101906103b79190613cf0565b610f0a565b005b3480156103ca57600080fd5b506103e560048036038101906103e09190613c10565b610f85565b005b61040160048036038101906103fc9190613dd1565b610fa5565b005b34801561040f57600080fd5b50610418610fc4565b6040516104259190613cd5565b60405180910390f35b34801561043a57600080fd5b5061045560048036038101906104509190613e2d565b610ff7565b005b34801561046357600080fd5b5061047e60048036038101906104799190613821565b611018565b60405161048b919061388f565b60405180910390f35b3480156104a057600080fd5b506104bb60048036038101906104b69190613e76565b61102a565b6040516104c89190613eb2565b60405180910390f35b3480156104dd57600080fd5b506104f860048036038101906104f39190613821565b6110f3565b60405161050591906137c9565b60405180910390f35b34801561051a57600080fd5b50610523611198565b005b34801561053157600080fd5b5061054c60048036038101906105479190613f2d565b6113d6565b6040516105599190614038565b60405180910390f35b34801561056e57600080fd5b5061058960048036038101906105849190613cf0565b61165c565b604051610596919061371e565b60405180910390f35b3480156105ab57600080fd5b506105b46116d5565b6040516105c191906137c9565b60405180910390f35b3480156105d657600080fd5b506105f160048036038101906105ec9190613e76565b611776565b005b3480156105ff57600080fd5b50610608611794565b6040516106159190613cd5565b60405180910390f35b34801561062a57600080fd5b5061064560048036038101906106409190614086565b61179b565b005b34801561065357600080fd5b5061065c6117b1565b60405161066991906137c9565b60405180910390f35b34801561067e57600080fd5b50610699600480360381019061069491906140c6565b6117ea565b005b3480156106a757600080fd5b506106c260048036038101906106bd9190613e76565b611807565b005b3480156106d057600080fd5b506106eb60048036038101906106e69190613821565b611825565b6040516106f891906137c9565b60405180910390f35b34801561070d57600080fd5b5061072860048036038101906107239190613cf0565b611949565b005b34801561073657600080fd5b50610751600480360381019061074c9190614149565b61196b565b60405161075e919061371e565b60405180910390f35b600061077282611a0d565b9050919050565b60606000610785611a87565b9050806000018054610796906141b8565b80601f01602080910402602001604051908101604052809291908181526020018280546107c2906141b8565b801561080f5780601f106107e45761010080835404028352916020019161080f565b820191906000526020600020905b8154815290600101906020018083116107f257829003601f168201915b505050505091505090565b600061082582611aaf565b5061082f82611b37565b9050919050565b6108488282610843611b82565b611b8a565b5050565b6000801b61085981611b9c565b6108638383611bb0565b505050565b61087061361e565b600360008381526020019081526020016000206040518061012001604052908160008201805461089f906141b8565b80601f01602080910402602001604051908101604052809291908181526020018280546108cb906141b8565b80156109185780601f106108ed57610100808354040283529160200191610918565b820191906000526020600020905b8154815290600101906020018083116108fb57829003601f168201915b50505050508152602001600182018054610931906141b8565b80601f016020809104026020016040519081016040528092919081815260200182805461095d906141b8565b80156109aa5780601f1061097f576101008083540402835291602001916109aa565b820191906000526020600020905b81548152906001019060200180831161098d57829003601f168201915b505050505081526020016002820180546109c3906141b8565b80601f01602080910402602001604051908101604052809291908181526020018280546109ef906141b8565b8015610a3c5780601f10610a1157610100808354040283529160200191610a3c565b820191906000526020600020905b815481529060010190602001808311610a1f57829003601f168201915b50505050508152602001600382018054610a55906141b8565b80601f0160208091040260200160405190810160405280929190818152602001828054610a81906141b8565b8015610ace5780601f10610aa357610100808354040283529160200191610ace565b820191906000526020600020905b815481529060010190602001808311610ab157829003601f168201915b50505050508152602001600482018054610ae7906141b8565b80601f0160208091040260200160405190810160405280929190818152602001828054610b13906141b8565b8015610b605780601f10610b3557610100808354040283529160200191610b60565b820191906000526020600020905b815481529060010190602001808311610b4357829003601f168201915b50505050508152602001600582018054610b79906141b8565b80601f0160208091040260200160405190810160405280929190818152602001828054610ba5906141b8565b8015610bf25780601f10610bc757610100808354040283529160200191610bf2565b820191906000526020600020905b815481529060010190602001808311610bd557829003601f168201915b50505050508152602001600682018054610c0b906141b8565b80601f0160208091040260200160405190810160405280929190818152602001828054610c37906141b8565b8015610c845780601f10610c5957610100808354040283529160200191610c84565b820191906000526020600020905b815481529060010190602001808311610c6757829003601f168201915b50505050508152602001600782018054610c9d906141b8565b80601f0160208091040260200160405190810160405280929190818152602001828054610cc9906141b8565b8015610d165780601f10610ceb57610100808354040283529160200191610d16565b820191906000526020600020905b815481529060010190602001808311610cf957829003601f168201915b50505050508152602001600882018054610d2f906141b8565b80601f0160208091040260200160405190810160405280929190818152602001828054610d5b906141b8565b8015610da85780601f10610d7d57610100808354040283529160200191610da8565b820191906000526020600020905b815481529060010190602001808311610d8b57829003601f168201915b5050505050815250509050919050565b600073ffffffffffffffffffffffffffffffffffffffff168273ffffffffffffffffffffffffffffffffffffffff1603610e2a5760006040517f64a0ae92000000000000000000000000000000000000000000000000000000008152600401610e21919061388f565b60405180910390fd5b6000610e3e8383610e39611b82565b611c1b565b90508373ffffffffffffffffffffffffffffffffffffffff168173ffffffffffffffffffffffffffffffffffffffff1614610eb4578382826040517f64283d7b000000000000000000000000000000000000000000000000000000008152600401610eab939291906141e9565b60405180910390fd5b50505050565b600080610ec5611e48565b905080600001600084815260200190815260200160002060010154915050919050565b610ef182610eba565b610efa81611b9c565b610f048383611e70565b50505050565b610f12611b82565b73ffffffffffffffffffffffffffffffffffffffff168173ffffffffffffffffffffffffffffffffffffffff1614610f76576040517f6697b23200000000000000000000000000000000000000000000000000000000815260040160405180910390fd5b610f808282611f71565b505050565b610fa0838383604051806020016040528060008152506117ea565b505050565b610fad612073565b610fb682612159565b610fc0828261216a565b5050565b6000610fce612289565b7f360894a13ba1a3210667c828492db98dca3e2076cc3735a920a3ca505d382bbc60001b905090565b6000801b61100481611b9c565b816001908161101391906143cc565b505050565b600061102382611aaf565b9050919050565b600080611035611a87565b9050600073ffffffffffffffffffffffffffffffffffffffff168373ffffffffffffffffffffffffffffffffffffffff16036110a95760006040517f89c62b640000000000000000000000000000000000000000000000000000000081526004016110a0919061388f565b60405180910390fd5b8060030160008473ffffffffffffffffffffffffffffffffffffffff1673ffffffffffffffffffffffffffffffffffffffff16815260200190815260200160002054915050919050565b6060600260008381526020019081526020016000208054611113906141b8565b80601f016020809104026020016040519081016040528092919081815260200182805461113f906141b8565b801561118c5780601f106111615761010080835404028352916020019161118c565b820191906000526020600020905b81548152906001019060200180831161116f57829003601f168201915b50505050509050919050565b60006111a2612310565b905060008160000160089054906101000a900460ff1615905060008260000160009054906101000a900467ffffffffffffffff1690506000808267ffffffffffffffff161480156111f05750825b9050600060018367ffffffffffffffff16148015611225575060003073ffffffffffffffffffffffffffffffffffffffff163b145b905081158015611233575080155b1561126a576040517ff92ee8a900000000000000000000000000000000000000000000000000000000815260040160405180910390fd5b60018560000160006101000a81548167ffffffffffffffff021916908367ffffffffffffffff16021790555083156112ba5760018560000160086101000a81548160ff0219169083151502179055505b61132e6040518060400160405280601881526020017f53796e6369626c65204365727469666963617465204e465400000000000000008152506040518060400160405280600581526020017f53434e4654000000000000000000000000000000000000000000000000000000815250612338565b61133661234e565b61133e612358565b611346612362565b604051806020016040528060008152506001908161136491906143cc565b506113726000801b33611e70565b5083156113cf5760008560000160086101000a81548160ff0219169083151502179055507fc7f505b2f371ae2175ee4913f4499e1f2633a7b5936321eed1cdaeb6115181d260016040516113c691906144ed565b60405180910390a15b5050505050565b60606000801b6113e581611b9c565b60008484905067ffffffffffffffff81111561140457611403613920565b5b6040519080825280602002602001820160405280156114325781602001602082028036833780820191505090505b50905060005b858590508110156116505761162486868381811061145957611458614508565b5b905060200281019061146b9190614546565b600001602081019061147d9190613e76565b8787848181106114905761148f614508565b5b90506020028101906114a29190614546565b80602001906114b1919061456e565b8080601f016020809104026020016040519081016040528093929190818152602001838380828437600081840152601f19601f8201169050808301925050505050505088888581811061150757611506614508565b5b90506020028101906115199190614546565b8060400190611528919061456e565b8080601f016020809104026020016040519081016040528093929190818152602001838380828437600081840152601f19601f8201169050808301925050505050505089898681811061157e5761157d614508565b5b90506020028101906115909190614546565b806060019061159f919061456e565b8080601f016020809104026020016040519081016040528093929190818152602001838380828437600081840152601f19601f820116905080830192505050505050508a8a878181106115f5576115f4614508565b5b90506020028101906116079190614546565b806080019061161691906145d1565b61161f906147e0565b61236c565b82828151811061163757611636614508565b5b6020026020010181815250508080600101915050611438565b50809250505092915050565b600080611667611e48565b905080600001600085815260200190815260200160002060000160008473ffffffffffffffffffffffffffffffffffffffff1673ffffffffffffffffffffffffffffffffffffffff16815260200190815260200160002060009054906101000a900460ff1691505092915050565b606060006116e1611a87565b90508060010180546116f2906141b8565b80601f016020809104026020016040519081016040528092919081815260200182805461171e906141b8565b801561176b5780601f106117405761010080835404028352916020019161176b565b820191906000526020600020905b81548152906001019060200180831161174e57829003601f168201915b505050505091505090565b6000801b61178381611b9c565b6117906000801b83611949565b5050565b6000801b81565b6117ad6117a6611b82565b8383612537565b5050565b6040518060400160405280600581526020017f352e302e3000000000000000000000000000000000000000000000000000000081525081565b6117f5848484610db8565b611801848484846126b5565b50505050565b6000801b61181481611b9c565b6118216000801b83610ee8565b5050565b6060600061183161286c565b905061183c83611aaf565b506000816000016000858152602001908152602001600020805461185f906141b8565b80601f016020809104026020016040519081016040528092919081815260200182805461188b906141b8565b80156118d85780601f106118ad576101008083540402835291602001916118d8565b820191906000526020600020905b8154815290600101906020018083116118bb57829003601f168201915b5050505050905060006118e9612894565b905060008151036118ff57819350505050611944565b60008251111561193557808260405160200161191c92919061482f565b6040516020818303038152906040529350505050611944565b61193e85612926565b93505050505b919050565b61195282610eba565b61195b81611b9c565b6119658383611f71565b50505050565b600080611976611a87565b90508060050160008573ffffffffffffffffffffffffffffffffffffffff1673ffffffffffffffffffffffffffffffffffffffff16815260200190815260200160002060008473ffffffffffffffffffffffffffffffffffffffff1673ffffffffffffffffffffffffffffffffffffffff16815260200190815260200160002060009054906101000a900460ff1691505092915050565b60007f7965db0b000000000000000000000000000000000000000000000000000000007bffffffffffffffffffffffffffffffffffffffffffffffffffffffff1916827bffffffffffffffffffffffffffffffffffffffffffffffffffffffff19161480611a805750611a7f8261298f565b5b9050919050565b60007f80bb2b638cc20bc4d0a60d66940f3ab4a00c1d7b313497ca82fb0b4ab0079300905090565b600080611abb836129f0565b9050600073ffffffffffffffffffffffffffffffffffffffff168173ffffffffffffffffffffffffffffffffffffffff1603611b2e57826040517f7e273289000000000000000000000000000000000000000000000000000000008152600401611b259190613eb2565b60405180910390fd5b80915050919050565b600080611b42611a87565b905080600401600084815260200190815260200160002060009054906101000a900473ffffffffffffffffffffffffffffffffffffffff16915050919050565b600033905090565b611b978383836001612a3b565b505050565b611bad81611ba8611b82565b612c0f565b50565b6000611bba61286c565b9050818160000160008581526020019081526020016000209081611bde91906143cc565b507ff8e1a15aba9398e019f0b49df1a4fde98ee17ae345cb5f6b5e2c27f5033e8ce783604051611c0e9190613eb2565b60405180910390a1505050565b600080611c26611a87565b90506000611c33856129f0565b9050600073ffffffffffffffffffffffffffffffffffffffff168473ffffffffffffffffffffffffffffffffffffffff1614611c7557611c74818587612c60565b5b600073ffffffffffffffffffffffffffffffffffffffff168173ffffffffffffffffffffffffffffffffffffffff1614611d0857611cb7600086600080612a3b565b60018260030160008373ffffffffffffffffffffffffffffffffffffffff1673ffffffffffffffffffffffffffffffffffffffff168152602001908152602001600020600082825403925050819055505b600073ffffffffffffffffffffffffffffffffffffffff168673ffffffffffffffffffffffffffffffffffffffff1614611d8d5760018260030160008873ffffffffffffffffffffffffffffffffffffffff1673ffffffffffffffffffffffffffffffffffffffff168152602001908152602001600020600082825401925050819055505b8582600201600087815260200190815260200160002060006101000a81548173ffffffffffffffffffffffffffffffffffffffff021916908373ffffffffffffffffffffffffffffffffffffffff160217905550848673ffffffffffffffffffffffffffffffffffffffff168273ffffffffffffffffffffffffffffffffffffffff167fddf252ad1be2c89b69c2b068fc378daa952ba7f163c4a11628f55a4df523b3ef60405160405180910390a480925050509392505050565b60007f02dd7bc7dec4dceedda775e58dd541e08a116c6c53815c0bd028192f7b626800905090565b600080611e7b611e48565b9050611e87848461165c565b611f6557600181600001600086815260200190815260200160002060000160008573ffffffffffffffffffffffffffffffffffffffff1673ffffffffffffffffffffffffffffffffffffffff16815260200190815260200160002060006101000a81548160ff021916908315150217905550611f01611b82565b73ffffffffffffffffffffffffffffffffffffffff168373ffffffffffffffffffffffffffffffffffffffff16857f2f8788117e7eff1d82e926ec794901d17c78024a50270940304540a733656f0d60405160405180910390a46001915050611f6b565b60009150505b92915050565b600080611f7c611e48565b9050611f88848461165c565b1561206757600081600001600086815260200190815260200160002060000160008573ffffffffffffffffffffffffffffffffffffffff1673ffffffffffffffffffffffffffffffffffffffff16815260200190815260200160002060006101000a81548160ff021916908315150217905550612003611b82565b73ffffffffffffffffffffffffffffffffffffffff168373ffffffffffffffffffffffffffffffffffffffff16857ff6391f5c32d9c69d2a47ea670b442974b53935d1edc7fd64eb21e047a839171b60405160405180910390a4600191505061206d565b60009150505b92915050565b7f000000000000000000000000000000000000000000000000000000000000000073ffffffffffffffffffffffffffffffffffffffff163073ffffffffffffffffffffffffffffffffffffffff16148061212057507f000000000000000000000000000000000000000000000000000000000000000073ffffffffffffffffffffffffffffffffffffffff16612107612d24565b73ffffffffffffffffffffffffffffffffffffffff1614155b15612157576040517fe07c8dba00000000000000000000000000000000000000000000000000000000815260040160405180910390fd5b565b6000801b61216681611b9c565b5050565b8173ffffffffffffffffffffffffffffffffffffffff166352d1902d6040518163ffffffff1660e01b8152600401602060405180830381865afa9250505080156121d257506040513d601f19601f820116820180604052508101906121cf9190614868565b60015b61221357816040517f4c9c8ce300000000000000000000000000000000000000000000000000000000815260040161220a919061388f565b60405180910390fd5b7f360894a13ba1a3210667c828492db98dca3e2076cc3735a920a3ca505d382bbc60001b811461227a57806040517faa1d49a40000000000000000000000000000000000000000000000000000000081526004016122719190613cd5565b60405180910390fd5b6122848383612d7b565b505050565b7f000000000000000000000000000000000000000000000000000000000000000073ffffffffffffffffffffffffffffffffffffffff163073ffffffffffffffffffffffffffffffffffffffff161461230e576040517fe07c8dba00000000000000000000000000000000000000000000000000000000815260040160405180910390fd5b565b60007ff0c57e16840df040f15088dc2f81fe391c3923bec73e23a9662efc9c229c6a00905090565b612340612dee565b61234a8282612e2e565b5050565b612356612dee565b565b612360612dee565b565b61236a612dee565b565b6000600160008082825461238091906148c4565b9250508190555083600260008054815260200190815260200160002090816123a891906143cc565b5081600360008054815260200190815260200160002060008201518160000190816123d391906143cc565b5060208201518160010190816123e991906143cc565b5060408201518160020190816123ff91906143cc565b50606082015181600301908161241591906143cc565b50608082015181600401908161242b91906143cc565b5060a082015181600501908161244191906143cc565b5060c082015181600601908161245791906143cc565b5060e082015181600701908161246d91906143cc565b5061010082015181600801908161248491906143cc565b509050506000805490506124988782612e6b565b6124a28185611bb0565b808773ffffffffffffffffffffffffffffffffffffffff167f1991bc143b1d153b7048a1280dd32f1b6a1421cd2331f8ad190ccb52baeecfe487898760000151886020015189604001518a606001518b608001518c60a001518d60c001518e60e001518f61010001516040516125229b9a999897969594939291906148f8565b60405180910390a38091505095945050505050565b6000612541611a87565b9050600073ffffffffffffffffffffffffffffffffffffffff168373ffffffffffffffffffffffffffffffffffffffff16036125b457826040517f5b08ba180000000000000000000000000000000000000000000000000000000081526004016125ab919061388f565b60405180910390fd5b818160050160008673ffffffffffffffffffffffffffffffffffffffff1673ffffffffffffffffffffffffffffffffffffffff16815260200190815260200160002060008573ffffffffffffffffffffffffffffffffffffffff1673ffffffffffffffffffffffffffffffffffffffff16815260200190815260200160002060006101000a81548160ff0219169083151502179055508273ffffffffffffffffffffffffffffffffffffffff168473ffffffffffffffffffffffffffffffffffffffff167f17307eab39ab6107e8899845ad3d59bd9653f200f220920489ca2b5937696c31846040516126a7919061371e565b60405180910390a350505050565b60008373ffffffffffffffffffffffffffffffffffffffff163b1115612866578273ffffffffffffffffffffffffffffffffffffffff1663150b7a026126f9611b82565b8685856040518563ffffffff1660e01b815260040161271b9493929190614a45565b6020604051808303816000875af192505050801561275757506040513d601f19601f820116820180604052508101906127549190614aa6565b60015b6127db573d8060008114612787576040519150601f19603f3d011682016040523d82523d6000602084013e61278c565b606091505b5060008151036127d357836040517f64a0ae920000000000000000000000000000000000000000000000000000000081526004016127ca919061388f565b60405180910390fd5b805181602001fd5b63150b7a0260e01b7bffffffffffffffffffffffffffffffffffffffffffffffffffffffff1916817bffffffffffffffffffffffffffffffffffffffffffffffffffffffff19161461286457836040517f64a0ae9200000000000000000000000000000000000000000000000000000000815260040161285b919061388f565b60405180910390fd5b505b50505050565b60007f0542a41881ee128a365a727b282c86fa859579490b9bb45aab8503648c8e7900905090565b6060600180546128a3906141b8565b80601f01602080910402602001604051908101604052809291908181526020018280546128cf906141b8565b801561291c5780601f106128f15761010080835404028352916020019161291c565b820191906000526020600020905b8154815290600101906020018083116128ff57829003601f168201915b5050505050905090565b606061293182611aaf565b50600061293c612894565b9050600081511161295c5760405180602001604052806000815250612987565b8061296684612f64565b60405160200161297792919061482f565b6040516020818303038152906040525b915050919050565b6000634906490660e01b7bffffffffffffffffffffffffffffffffffffffffffffffffffffffff1916827bffffffffffffffffffffffffffffffffffffffffffffffffffffffff191614806129e957506129e882613032565b5b9050919050565b6000806129fb611a87565b905080600201600084815260200190815260200160002060009054906101000a900473ffffffffffffffffffffffffffffffffffffffff16915050919050565b6000612a45611a87565b90508180612a805750600073ffffffffffffffffffffffffffffffffffffffff168373ffffffffffffffffffffffffffffffffffffffff1614155b15612bb4576000612a9085611aaf565b9050600073ffffffffffffffffffffffffffffffffffffffff168473ffffffffffffffffffffffffffffffffffffffff1614158015612afb57508373ffffffffffffffffffffffffffffffffffffffff168173ffffffffffffffffffffffffffffffffffffffff1614155b8015612b0e5750612b0c818561196b565b155b15612b5057836040517fa9fbf51f000000000000000000000000000000000000000000000000000000008152600401612b47919061388f565b60405180910390fd5b8215612bb257848673ffffffffffffffffffffffffffffffffffffffff168273ffffffffffffffffffffffffffffffffffffffff167f8c5be1e5ebec7d5bd14f71427d1e84f3dd0314c0f7b2291e5b200ac8c7c3b92560405160405180910390a45b505b8481600401600086815260200190815260200160002060006101000a81548173ffffffffffffffffffffffffffffffffffffffff021916908373ffffffffffffffffffffffffffffffffffffffff1602179055505050505050565b612c19828261165c565b612c5c5780826040517fe2517d3f000000000000000000000000000000000000000000000000000000008152600401612c53929190614ad3565b60405180910390fd5b5050565b612c6b838383613114565b612d1f57600073ffffffffffffffffffffffffffffffffffffffff168373ffffffffffffffffffffffffffffffffffffffff1603612ce057806040517f7e273289000000000000000000000000000000000000000000000000000000008152600401612cd79190613eb2565b60405180910390fd5b81816040517f177e802f000000000000000000000000000000000000000000000000000000008152600401612d16929190614afc565b60405180910390fd5b505050565b6000612d527f360894a13ba1a3210667c828492db98dca3e2076cc3735a920a3ca505d382bbc60001b6131d5565b60000160009054906101000a900473ffffffffffffffffffffffffffffffffffffffff16905090565b612d84826131df565b8173ffffffffffffffffffffffffffffffffffffffff167fbc7cd75a20ee27fd9adebab32041f755214dbc6bffa90cc0225b39da2e5c2d3b60405160405180910390a2600081511115612de157612ddb82826132ac565b50612dea565b612de9613330565b5b5050565b612df661336d565b612e2c576040517fd7e6bcf800000000000000000000000000000000000000000000000000000000815260040160405180910390fd5b565b612e36612dee565b6000612e40611a87565b905082816000019081612e5391906143cc565b5081816001019081612e6591906143cc565b50505050565b600073ffffffffffffffffffffffffffffffffffffffff168273ffffffffffffffffffffffffffffffffffffffff1603612edd5760006040517f64a0ae92000000000000000000000000000000000000000000000000000000008152600401612ed4919061388f565b60405180910390fd5b6000612eeb83836000611c1b565b9050600073ffffffffffffffffffffffffffffffffffffffff168173ffffffffffffffffffffffffffffffffffffffff1614612f5f5760006040517f73c6ac6e000000000000000000000000000000000000000000000000000000008152600401612f56919061388f565b60405180910390fd5b505050565b606060006001612f738461338d565b01905060008167ffffffffffffffff811115612f9257612f91613920565b5b6040519080825280601f01601f191660200182016040528015612fc45781602001600182028036833780820191505090505b509050600082602001820190505b600115613027578080600190039150507f3031323334353637383961626364656600000000000000000000000000000000600a86061a8153600a858161301b5761301a614b25565b5b04945060008503612fd2575b819350505050919050565b60007f80ac58cd000000000000000000000000000000000000000000000000000000007bffffffffffffffffffffffffffffffffffffffffffffffffffffffff1916827bffffffffffffffffffffffffffffffffffffffffffffffffffffffff191614806130fd57507f5b5e139f000000000000000000000000000000000000000000000000000000007bffffffffffffffffffffffffffffffffffffffffffffffffffffffff1916827bffffffffffffffffffffffffffffffffffffffffffffffffffffffff1916145b8061310d575061310c826134e0565b5b9050919050565b60008073ffffffffffffffffffffffffffffffffffffffff168373ffffffffffffffffffffffffffffffffffffffff16141580156131cc57508273ffffffffffffffffffffffffffffffffffffffff168473ffffffffffffffffffffffffffffffffffffffff16148061318d575061318c848461196b565b5b806131cb57508273ffffffffffffffffffffffffffffffffffffffff166131b383611b37565b73ffffffffffffffffffffffffffffffffffffffff16145b5b90509392505050565b6000819050919050565b60008173ffffffffffffffffffffffffffffffffffffffff163b0361323b57806040517f4c9c8ce3000000000000000000000000000000000000000000000000000000008152600401613232919061388f565b60405180910390fd5b806132687f360894a13ba1a3210667c828492db98dca3e2076cc3735a920a3ca505d382bbc60001b6131d5565b60000160006101000a81548173ffffffffffffffffffffffffffffffffffffffff021916908373ffffffffffffffffffffffffffffffffffffffff16021790555050565b60606000808473ffffffffffffffffffffffffffffffffffffffff16846040516132d69190614b90565b600060405180830381855af49150503d8060008114613311576040519150601f19603f3d011682016040523d82523d6000602084013e613316565b606091505b509150915061332685838361354a565b9250505092915050565b600034111561336b576040517fb398979f00000000000000000000000000000000000000000000000000000000815260040160405180910390fd5b565b6000613377612310565b60000160089054906101000a900460ff16905090565b600080600090507a184f03e93ff9f4daa797ed6e38ed64bf6a1f01000000000000000083106133eb577a184f03e93ff9f4daa797ed6e38ed64bf6a1f01000000000000000083816133e1576133e0614b25565b5b0492506040810190505b6d04ee2d6d415b85acef81000000008310613428576d04ee2d6d415b85acef8100000000838161341e5761341d614b25565b5b0492506020810190505b662386f26fc10000831061345757662386f26fc10000838161344d5761344c614b25565b5b0492506010810190505b6305f5e1008310613480576305f5e100838161347657613475614b25565b5b0492506008810190505b61271083106134a557612710838161349b5761349a614b25565b5b0492506004810190505b606483106134c857606483816134be576134bd614b25565b5b0492506002810190505b600a83106134d7576001810190505b80915050919050565b60007f01ffc9a7000000000000000000000000000000000000000000000000000000007bffffffffffffffffffffffffffffffffffffffffffffffffffffffff1916827bffffffffffffffffffffffffffffffffffffffffffffffffffffffff1916149050919050565b60608261355f5761355a826135d9565b6135d1565b60008251148015613587575060008473ffffffffffffffffffffffffffffffffffffffff163b145b156135c957836040517f9996b3150000000000000000000000000000000000000000000000000000000081526004016135c0919061388f565b60405180910390fd5b8190506135d2565b5b9392505050565b6000815111156135ec5780518082602001fd5b6040517f1425ea4200000000000000000000000000000000000000000000000000000000815260040160405180910390fd5b6040518061012001604052806060815260200160608152602001606081526020016060815260200160608152602001606081526020016060815260200160608152602001606081525090565b6000604051905090565b600080fd5b600080fd5b60007fffffffff0000000000000000000000000000000000000000000000000000000082169050919050565b6136b38161367e565b81146136be57600080fd5b50565b6000813590506136d0816136aa565b92915050565b6000602082840312156136ec576136eb613674565b5b60006136fa848285016136c1565b91505092915050565b60008115159050919050565b61371881613703565b82525050565b6000602082019050613733600083018461370f565b92915050565b600081519050919050565b600082825260208201905092915050565b60005b83811015613773578082015181840152602081019050613758565b60008484015250505050565b6000601f19601f8301169050919050565b600061379b82613739565b6137a58185613744565b93506137b5818560208601613755565b6137be8161377f565b840191505092915050565b600060208201905081810360008301526137e38184613790565b905092915050565b6000819050919050565b6137fe816137eb565b811461380957600080fd5b50565b60008135905061381b816137f5565b92915050565b60006020828403121561383757613836613674565b5b60006138458482850161380c565b91505092915050565b600073ffffffffffffffffffffffffffffffffffffffff82169050919050565b60006138798261384e565b9050919050565b6138898161386e565b82525050565b60006020820190506138a46000830184613880565b92915050565b6138b38161386e565b81146138be57600080fd5b50565b6000813590506138d0816138aa565b92915050565b600080604083850312156138ed576138ec613674565b5b60006138fb858286016138c1565b925050602061390c8582860161380c565b9150509250929050565b600080fd5b600080fd5b7f4e487b7100000000000000000000000000000000000000000000000000000000600052604160045260246000fd5b6139588261377f565b810181811067ffffffffffffffff8211171561397757613976613920565b5b80604052505050565b600061398a61366a565b9050613996828261394f565b919050565b600067ffffffffffffffff8211156139b6576139b5613920565b5b6139bf8261377f565b9050602081019050919050565b82818337600083830152505050565b60006139ee6139e98461399b565b613980565b905082815260208101848484011115613a0a57613a0961391b565b5b613a158482856139cc565b509392505050565b600082601f830112613a3257613a31613916565b5b8135613a428482602086016139db565b91505092915050565b60008060408385031215613a6257613a61613674565b5b6000613a708582860161380c565b925050602083013567ffffffffffffffff811115613a9157613a90613679565b5b613a9d85828601613a1d565b9150509250929050565b600082825260208201905092915050565b6000613ac382613739565b613acd8185613aa7565b9350613add818560208601613755565b613ae68161377f565b840191505092915050565b6000610120830160008301518482036000860152613b0f8282613ab8565b91505060208301518482036020860152613b298282613ab8565b91505060408301518482036040860152613b438282613ab8565b91505060608301518482036060860152613b5d8282613ab8565b91505060808301518482036080860152613b778282613ab8565b91505060a083015184820360a0860152613b918282613ab8565b91505060c083015184820360c0860152613bab8282613ab8565b91505060e083015184820360e0860152613bc58282613ab8565b915050610100830151848203610100860152613be18282613ab8565b9150508091505092915050565b60006020820190508181036000830152613c088184613af1565b905092915050565b600080600060608486031215613c2957613c28613674565b5b6000613c37868287016138c1565b9350506020613c48868287016138c1565b9250506040613c598682870161380c565b9150509250925092565b6000819050919050565b613c7681613c63565b8114613c8157600080fd5b50565b600081359050613c9381613c6d565b92915050565b600060208284031215613caf57613cae613674565b5b6000613cbd84828501613c84565b91505092915050565b613ccf81613c63565b82525050565b6000602082019050613cea6000830184613cc6565b92915050565b60008060408385031215613d0757613d06613674565b5b6000613d1585828601613c84565b9250506020613d26858286016138c1565b9150509250929050565b600067ffffffffffffffff821115613d4b57613d4a613920565b5b613d548261377f565b9050602081019050919050565b6000613d74613d6f84613d30565b613980565b905082815260208101848484011115613d9057613d8f61391b565b5b613d9b8482856139cc565b509392505050565b600082601f830112613db857613db7613916565b5b8135613dc8848260208601613d61565b91505092915050565b60008060408385031215613de857613de7613674565b5b6000613df6858286016138c1565b925050602083013567ffffffffffffffff811115613e1757613e16613679565b5b613e2385828601613da3565b9150509250929050565b600060208284031215613e4357613e42613674565b5b600082013567ffffffffffffffff811115613e6157613e60613679565b5b613e6d84828501613a1d565b91505092915050565b600060208284031215613e8c57613e8b613674565b5b6000613e9a848285016138c1565b91505092915050565b613eac816137eb565b82525050565b6000602082019050613ec76000830184613ea3565b92915050565b600080fd5b600080fd5b60008083601f840112613eed57613eec613916565b5b8235905067ffffffffffffffff811115613f0a57613f09613ecd565b5b602083019150836020820283011115613f2657613f25613ed2565b5b9250929050565b60008060208385031215613f4457613f43613674565b5b600083013567ffffffffffffffff811115613f6257613f61613679565b5b613f6e85828601613ed7565b92509250509250929050565b600081519050919050565b600082825260208201905092915050565b6000819050602082019050919050565b613faf816137eb565b82525050565b6000613fc18383613fa6565b60208301905092915050565b6000602082019050919050565b6000613fe582613f7a565b613fef8185613f85565b9350613ffa83613f96565b8060005b8381101561402b5781516140128882613fb5565b975061401d83613fcd565b925050600181019050613ffe565b5085935050505092915050565b600060208201905081810360008301526140528184613fda565b905092915050565b61406381613703565b811461406e57600080fd5b50565b6000813590506140808161405a565b92915050565b6000806040838503121561409d5761409c613674565b5b60006140ab858286016138c1565b92505060206140bc85828601614071565b9150509250929050565b600080600080608085870312156140e0576140df613674565b5b60006140ee878288016138c1565b94505060206140ff878288016138c1565b93505060406141108782880161380c565b925050606085013567ffffffffffffffff81111561413157614130613679565b5b61413d87828801613da3565b91505092959194509250565b600080604083850312156141605761415f613674565b5b600061416e858286016138c1565b925050602061417f858286016138c1565b9150509250929050565b7f4e487b7100000000000000000000000000000000000000000000000000000000600052602260045260246000fd5b600060028204905060018216806141d057607f821691505b6020821081036141e3576141e2614189565b5b50919050565b60006060820190506141fe6000830186613880565b61420b6020830185613ea3565b6142186040830184613880565b949350505050565b60008190508160005260206000209050919050565b60006020601f8301049050919050565b600082821b905092915050565b6000600883026142827fffffffffffffffffffffffffffffffffffffffffffffffffffffffffffffffff82614245565b61428c8683614245565b95508019841693508086168417925050509392505050565b6000819050919050565b60006142c96142c46142bf846137eb565b6142a4565b6137eb565b9050919050565b6000819050919050565b6142e3836142ae565b6142f76142ef826142d0565b848454614252565b825550505050565b600090565b61430c6142ff565b6143178184846142da565b505050565b5b8181101561433b57614330600082614304565b60018101905061431d565b5050565b601f8211156143805761435181614220565b61435a84614235565b81016020851015614369578190505b61437d61437585614235565b83018261431c565b50505b505050565b600082821c905092915050565b60006143a360001984600802614385565b1980831691505092915050565b60006143bc8383614392565b9150826002028217905092915050565b6143d582613739565b67ffffffffffffffff8111156143ee576143ed613920565b5b6143f882546141b8565b61440382828561433f565b600060209050601f8311600181146144365760008415614424578287015190505b61442e85826143b0565b865550614496565b601f19841661444486614220565b60005b8281101561446c57848901518255600182019150602085019450602081019050614447565b868310156144895784890151614485601f891682614392565b8355505b6001600288020188555050505b505050505050565b6000819050919050565b600067ffffffffffffffff82169050919050565b60006144d76144d26144cd8461449e565b6142a4565b6144a8565b9050919050565b6144e7816144bc565b82525050565b600060208201905061450260008301846144de565b92915050565b7f4e487b7100000000000000000000000000000000000000000000000000000000600052603260045260246000fd5b600080fd5b600080fd5b600080fd5b60008235600160a00383360303811261456257614561614537565b5b80830191505092915050565b6000808335600160200384360303811261458b5761458a614537565b5b80840192508235915067ffffffffffffffff8211156145ad576145ac61453c565b5b6020830192506001820236038313156145c9576145c8614541565b5b509250929050565b600082356001610120038336030381126145ee576145ed614537565b5b80830191505092915050565b600080fd5b600080fd5b6000610120828403121561461b5761461a6145fa565b5b614626610120613980565b9050600082013567ffffffffffffffff811115614646576146456145ff565b5b61465284828501613a1d565b600083015250602082013567ffffffffffffffff811115614676576146756145ff565b5b61468284828501613a1d565b602083015250604082013567ffffffffffffffff8111156146a6576146a56145ff565b5b6146b284828501613a1d565b604083015250606082013567ffffffffffffffff8111156146d6576146d56145ff565b5b6146e284828501613a1d565b606083015250608082013567ffffffffffffffff811115614706576147056145ff565b5b61471284828501613a1d565b60808301525060a082013567ffffffffffffffff811115614736576147356145ff565b5b61474284828501613a1d565b60a08301525060c082013567ffffffffffffffff811115614766576147656145ff565b5b61477284828501613a1d565b60c08301525060e082013567ffffffffffffffff811115614796576147956145ff565b5b6147a284828501613a1d565b60e08301525061010082013567ffffffffffffffff8111156147c7576147c66145ff565b5b6147d384828501613a1d565b6101008301525092915050565b60006147ec3683614604565b9050919050565b600081905092915050565b600061480982613739565b61481381856147f3565b9350614823818560208601613755565b80840191505092915050565b600061483b82856147fe565b915061484782846147fe565b91508190509392505050565b60008151905061486281613c6d565b92915050565b60006020828403121561487e5761487d613674565b5b600061488c84828501614853565b91505092915050565b7f4e487b7100000000000000000000000000000000000000000000000000000000600052601160045260246000fd5b60006148cf826137eb565b91506148da836137eb565b92508282019050808211156148f2576148f1614895565b5b92915050565b6000610160820190508181036000830152614913818e613790565b90508181036020830152614927818d613790565b9050818103604083015261493b818c613790565b9050818103606083015261494f818b613790565b90508181036080830152614963818a613790565b905081810360a08301526149778189613790565b905081810360c083015261498b8188613790565b905081810360e083015261499f8187613790565b90508181036101008301526149b48186613790565b90508181036101208301526149c98185613790565b90508181036101408301526149de8184613790565b90509c9b505050505050505050505050565b600081519050919050565b600082825260208201905092915050565b6000614a17826149f0565b614a2181856149fb565b9350614a31818560208601613755565b614a3a8161377f565b840191505092915050565b6000608082019050614a5a6000830187613880565b614a676020830186613880565b614a746040830185613ea3565b8181036060830152614a868184614a0c565b905095945050505050565b600081519050614aa0816136aa565b92915050565b600060208284031215614abc57614abb613674565b5b6000614aca84828501614a91565b91505092915050565b6000604082019050614ae86000830185613880565b614af56020830184613cc6565b9392505050565b6000604082019050614b116000830185613880565b614b1e6020830184613ea3565b9392505050565b7f4e487b7100000000000000000000000000000000000000000000000000000000600052601260045260246000fd5b600081905092915050565b6000614b6a826149f0565b614b748185614b54565b9350614b84818560208601613755565b80840191505092915050565b6000614b9c8284614b5f565b91508190509291505056fea264697066735822122063da8ce35ed04ffa910f0283fbb183d9d337714bcae3865bdc079bb1dcd0c2e264736f6c634300081a0033",
    "linkReferences": {},
    "deployedLinkReferences": {}
}